:107000000C942A380C943F380C943F380C943F3839
:107010000C943F380C943F380C943F380C943F3814
:107020000C943F380C943F380C943F380C943F3804
:107030000C943F380C943F380C943F380C943F38F4
:107040000C943F380C943F380C943F380C943F38E4
:107050000C943F3811241FBECFE5D8E0DEBFCDBF72
:1070600011E0A0E6B0E0EAE6F1E702C005900D927B
:10707000A036B107D9F70E9490380C94B3380C941D
:1070800000380F931F93CF93DF93EC01DB017FB7A1
:10709000F894D695DC2FCC27D795C79507B600FC7A
:1070A000FDCFE199FECF83E0FE0180935700E89584
:1070B00040E050E061E09C9111968C9111971296FE
:1070C00007B600FCFDCFE199FECFFA01EC0FFD1FE2
:1070D000382F20E08901090F111D08016093570026
:1070E000E89511244E5F5F4F4038510521F707B6F0
:1070F00000FCFDCFE199FECF85E0FE0180935700B3
:10710000E89507B600FCFDCFE199FECF81E18093C1
:107110005700E8957FBFDF91CF911F910F910895A0
:10712000889A20E031E048EC50E082B3832782BBAC
:1071300080E197E2FA013197F1F70197D9F72F5FD4
:10714000233099F780E090E060E670E00E944138DB
:1071500081E090E060EE70E00E9441380C94000005
:0A71600080E090E00895F894FFCF5E
:10716A000C942A000C9434000C9434000C943400CF
:10717A000C9434000C9434000C9434000C943400B5
:10718A000C9434000C9434000C9434000C943400A5
:10719A000C9434000C9434000C9434000C94340095
:1071AA000C9434000C9434000C9434000C94340085
:1071BA000C94340011241FBECFE5D8E0DEBFCDBF4A
:1071CA000E9436000C9446000C9400008FEF8ABB94
:1071DA0041E028EC30E08BB384278BBB80E197E257
:1071EA00F9013197F1F70197D9F7F5CFF894FFCF65
:1071FA00FFFFFFFFFFFFFFFFFFFFFFFFFFFFFFFF95
:10720A00FFFFFFFFFFFFFFFFFFFFFFFFFFFFFFFF84
:10721A00FFFFFFFFFFFFFFFFFFFFFFFFFFFFFFFF74
:10722A00FFFFFFFFFFFFFFFFFFFFFFFFFFFFFFFF64
:10723A00FFFFFFFFFFFFFFFFFFFFFFFFFFFFFFFF54
:10724A00FFFFFFFFFFFFFFFFFFFFFFFFFFFFFFFF44
:10725A00FFFFFFFFFFFFFFFFFFFFFFFFFFFFFFFF34
:040000030000700089
:00000001FF
