:100000000C942A000C943F000C943F000C943F0089
:100010000C943F000C943F000C943F000C943F0064
:100020000C943F000C943F000C943F000C943F0054
:100030000C943F000C943F000C943F000C943F0044
:100040000C943F000C943F000C943F000C943F0034
:100050000C943F0011241FBECFE5D8E0DEBFCDBF1A
:1000600011E0A0E6B0E0EEE7F1E002C005900D92ED
:10007000A036B107D9F70E9490000C94BD000C94F3
:1000800000000F931F93CF93DF93EC01DB017FB749
:10009000F894D695DC2FCC27D795C79507B600FCEA
:1000A000FDCFE199FECF83E0FE0180935700E895F4
:1000B00040E050E061E09C9111968C91119712966E
:1000C00007B600FCFDCFE199FECFFA01EC0FFD1F52
:1000D000382F20E08901090F111D08016093570096
:1000E000E89511244E5F5F4F4038510521F707B660
:1000F00000FCFDCFE199FECF85E0FE018093570023
:10010000E89507B600FCFDCFE199FECF81E1809331
:100110005700E8957FBFDF91CF911F910F91089510
:10012000889A909A80E197E228EC30E0F9013197C3
:10013000F1F70197D9F782B391E0892782BB80E17B
:1001400097E228EC30E0F9013197F1F70197D9F700
:1001500082B391E0892782BB80E090E060E670E0A6
:100160000E94410081E090E060EE70E00E9441005A
:0E0170000C94000080E090E00895F894FFCF1A
:10017E000C942A000C9434000C9434000C9434002B
:10018E000C9434000C9434000C9434000C94340011
:10019E000C9434000C9434000C9434000C94340001
:1001AE000C9434000C9434000C9434000C943400F1
:1001BE000C9434000C9434000C9434000C943400E1
:1001CE000C94340011241FBECFE5D8E0DEBFCDBFA6
:1001DE000E9436000C944C000C9400008FEF81BBF3
:1001EE0020E137E261E048EC50E005C0CA0101971A
:1001FE00F1F72150304021153105C1F782B3862722
:10020E0082BB20E137E2F2CFF894FFCFFFFFFFFF72
:10021E00FFFFFFFFFFFFFFFFFFFFFFFFFFFFFFFFE0
:10022E00FFFFFFFFFFFFFFFFFFFFFFFFFFFFFFFFD0
:10023E00FFFFFFFFFFFFFFFFFFFFFFFFFFFFFFFFC0
:10024E00FFFFFFFFFFFFFFFFFFFFFFFFFFFFFFFFB0
:10025E00FFFFFFFFFFFFFFFFFFFFFFFFFFFFFFFFA0
:10026E00FFFFFFFFFFFFFFFFFFFFFFFFFFFFFFFF90
:00000001FF
